:020000040800F2
:10000000C808002029020008432D0008E722000844
:10001000412D0008D50500089F31000800000000B0
:100020000000000000000000000000004B2D000850
:100030009506000800000000452D00084D2D000821
:10004000430200084302000843020008430200087C
:10005000430200084302000843020008430200086C
:10006000430200084302000843020008430200085C
:10007000430200084302000843020008430200084C
:10008000430200084302000843020008430200083C
:10009000430200084302000843020008430200082C
:1000A000430200084302000843020008430200081C
:1000B000F12D0008FD2D000843020008430200084E
:1000C00043020008430200084302000843020008FC
:1000D00043020008430200084302000843020008EC
:1000E000430200084302000843020008092E0008EA
:1000F00043020008430200084302000843020008CC
:1001000043020008430200084302000843020008BB
:1001100043020008430200084302000843020008AB
:10012000D9050008E505000843020008430200085D
:10013000430200084302000843020008430200088B
:10014000430200084302000843020008430200087B
:10015000430200084302000843020008430200086B
:10016000430200084302000843020008430200085B
:100170004302000843020008430200080000000098
:10018000430200084302000800F002F800F03CF8C7
:100190000AA090E8000C82448344AAF10107DA45E2
:1001A00001D100F031F8AFF2090EBAE80F0013F0F8
:1001B000010F18BFFB1A43F001031847584900000C
:1001C00078490000103A24BF78C878C1FAD852079D
:1001D00024BF30C830C144BF04680C6070470000C1
:1001E0000023002400250026103A28BF78C1FBD840
:1001F000520728BF30C148BF0B6070471FB503F0DE
:100200008FFB1FBD10B510BD00F0CFF81146FFF7F2
:10021000F5FF02F0E3FF00F0EDF803B4FFF7F2FFA3
:1002200003BC00F0F5F80000094880470948004782
:10023000FEE7FEE7FEE7FEE7FEE7FEE7FEE7FEE796
:10024000FEE7FEE704480549054A064B70470000F3
:10025000E12D000889010008C8020020C80800201C
:10026000C8040020C804002053EA020C00F0698092
:100270002DE9F04B4FF00006002B1FBFB3FA83F5BA
:1002800003FA05F424FA05F65E4012BF1643B2FAEB
:1002900082F502FA05F4C5F120051EBF22FA05FC1D
:1002A00044EA0C04203556EA044C4FEA144418BFC3
:1002B000641C4FF000084FF00009904271EB030CF2
:1002C00039D3002919BFB1FA81F701FA07F6B0FA5C
:1002D00080F700FA07F6C7F120071EBF20FA07FCD7
:1002E00046EA0C062037B6FBF4FCA7EB0507103FE7
:1002F00007F01F0BCBF120060CFA0BFB2CFA06F6CD
:1003000044BFB3460026202FA4BF5E464FF0000B2B
:100310005BEA060C08BF4FF0010B19EB0B09ABFBB6
:10032000027C48EB0608C01B06FB02CC0BFB03CC8F
:1003300071EB0C01C1E70B46024641464846BDE859
:10034000F08B13B54FF000004FF00001AFF30080C9
:10035000BDE81C4070474FF0000200B513469446BC
:100360009646203922BFA0E80C50A0E80C50B1F10D
:100370002001BFF4F7AF090728BFA0E80C5048BF21
:100380000CC05DF804EB890028BF40F8042B08BFBF
:10039000704748BF20F8022B11F0804F18BF00F8BB
:1003A000012B7047704770477047754600F02CF876
:1003B000AE4605006946534620F00700854618B052
:1003C00020B5FFF73FFFBDE820404FF000064FF09B
:1003D00000074FF000084FF0000B21F00701AC467A
:1003E000ACE8C009ACE8C009ACE8C009ACE8C00999
:1003F0008D46704710B50446AFF300802046BDE837
:100400001040FFF70ABF0000004870476802002054
:1004100001491820ABBEFEE726000200704710B568
:100420000146806B026C12F0500F05D0026CD206B0
:1004300026D500F0DBF910BD016C41F400710164B8
:1004400001688A6812F0405F17D1027EAAB9CA6AB1
:1004500012F4700F02D08A6852050ED44A6822F056
:1004600020024A60016C21F480710164016CC904AE
:1004700003D4016C41F00101016400F0B5F910BD35
:10048000806BC26CBDE810400846104710B5806B09
:1004900040210164416C41F00401416400F0A6F97F
:1004A00010BD10B5806B00F0A0F910BD464910B525
:1004B0004A6822F440324A604A6843681A434A60F4
:1004C00001684A6822F480724A6001684A680369D8
:1004D00042EA03224A6001684A6822F040724A6098
:1004E00001684A6883681A434A6001688A6822F48E
:1004F00000628A6001688A68C3681A438A60816AF8
:100500006FF07062D14201688A6822F070628A607E
:1005100001688A680CD0836A1A438A6001688A6815
:1005200022F040528A6001688A68C36A1A4301E077
:1005300022F040528A6001688A6822F002028A60D2
:1005400001688A68037E42EA43028A6090F82010BC
:10055000002901684A680FD042F400624A600168CD
:100560004A6822F460424A6001684A68174C436A4C
:1005700004EB43331A4301E022F400624A6001684D
:10058000CA6A22F47002CA620168CA6A838B104C7C
:1005900004EB03531A43CA6201688A6822F40072AA
:1005A0008A6001688A6890F8303042EA43228A60A3
:1005B00001688A6822F480628A6001688A684069FA
:1005C00042EA8020886010BD0023014000E0FFFF68
:1005D0000000F0FFFEE70000014800F05DBA0000F7
:1005E000D0000020014800F057BA00003001002080
:1005F00001681823CAB2103AB2FBF3F2054B6FF34D
:100600000901032A9B5CC36500D9091D8165084661
:1006100070470000FA4A000810B5014600208B69B7
:100620008A6A4FF0C07453B1B3F5005F15D072B150
:10063000012A0CD0022A0AD0032A09D104E01AB1F7
:10064000012A06D0022A03D1C96AC90100D50120B6
:1006500010BDC96AA142FAD010BD002AF7D0012A04
:10066000F2D0022AF3D0032AF3D010BD30B50468CB
:10067000256825F480252560046863608368402B25
:10068000036803D099600068C26030BD9A6000685A
:10069000C16030BD704772B6FEE7000078B5002437
:1006A000009490F83C20012A19D0012280F83C20C7
:1006B0000A6807230568092A13D9EE680A3A02EB8B
:1006C000420293409E43EE600B788A680A3B03EB3C
:1006D00043039A400368DD682A43DA6010E0022091
:1006E00078BD2E6902EB420293409E432E610B7847
:1006F0008A6803EB43039A4003681D692A431A6121
:100700004A681F23072A13D205686E6B521E02EB3C
:10071000820293409E436E630B790A885B1E92B2FD
:1007200003EB83039A4003685D6B2A435A6327E017
:1007300005680D2A12D22E6BD21F02EB8202934063
:100740009E432E630B790A88DB1F92B203EB83036F
:100750009A4003681D6B2A431A6311E0EE6A0D3A52
:1007600002EB820293409E43EE620B790A880D3BB6
:1007700092B203EB83039A400368DD6A2A43DA628C
:10078000164B0568144A9D4206D10D68122D03D1FF
:10079000556845F48005556005689D4218D10B6881
:1007A000102B01D0112B13D1536843F40003536075
:1007B000096810290CD10A490A4A0968B1FBF2F10B
:1007C00001EB8101490000E0491E00910029FBD1A5
:1007D00080F83C40002078BD00230140002001400B
:1007E0003C00002040420F0070477047704770B5D2
:1007F00004004FF0000503D0206C002610B107E084
:10080000012070BD204600F01DF8666484F83C604D
:10081000206CC00610D4206C20F4885040F00200F8
:1008200020642046FFF742FE6664206C20F0020040
:1008300040F00100206400E0012584F83C60284677
:1008400070BD00002DE9F04F87B0064614216846C0
:10085000FFF781FD3548344C14383368002533499F
:10086000032207154FF400684FF400594FF4807AC3
:100870004FF4003BA34227D10B6843F480730B6015
:10088000096801F480710591016841F0040101607B
:100890000068694600F00400059010208DE82500EE
:1008A000234800F07DFA244C224804F10C03C4E9EB
:1008B0000005A56083E8A00F204665622DE0B463C3
:1008C000A66307B0BDE8F08F1C4CA342F9D10B68BA
:1008D00043F480630B60096801F48061059101684D
:1008E00041F0200101600068694600F02000059099
:1008F00060158DE82500124800F052FA0E4C0D48A4
:100900006034183020604FF08060C4E9010504F1C4
:100910000C03204683E8A00F656200F08DF90028E3
:10092000CDD0FFF7B8FECAE70020014044380240AE
:100930000008024010640240D00000200022014064
:1009400000140240F8B5044600200E46009094F8CA
:100950003C10012907D0012184F83C1021688B68E4
:10096000DB0702D011E00220F8BD8B6843F00103E1
:100970008B604049404B0968B1FBF3F101EB410149
:1009800000E0491E00910029FBD121688B68DB053E
:1009900003D58B6823F480738B6021688B68DB0739
:1009A0005DD0236C40F20165AB4343F48073236454
:1009B0004968490505D5216C21F4005141F4805165
:1009C0002164216CC90404D5616C21F006016164C5
:1009D00000E0606484F83C00A16B2948274DC8639F
:1009E000A16B28480864A16B2748C86421686FF090
:1009F000220008602068416841F080614160206801
:100A0000816841F4807181602168134632464C311F
:100A1000A06B00F07BF968681C49C006206806D00E
:100A2000884224D1816811F0405F13D01FE08842D2
:100A3000F8D0174A904203D1D1F80423D206F1D05E
:100A4000144A904213D1D1F8041301F01F01102968
:100A5000E8D30CE0816841F08041816007E0206CC0
:100A600040F010002064606C40F0010060640020E1
:100A7000F8BD00003C00002040420F000023014070
:100A80001F040008A30400088D0400080020014092
:100A900000210140002201402DE9F84304464FF0B7
:100AA0000009CDF8009063484FF41651A56D006819
:100AB000B0FBF1F72E6894F85C10082000FA01F101
:100AC00031420FD021680A6852070BD50A6822F01C
:100AD00004020A6094F85C108840A860606D40F0E1
:100AE0000100606594F85C104FF0010808FA01F00D
:100AF000304208D021684969090604D5A860606DB4
:100B000040F00200606594F85C1004208840304298
:100B100008D021680968890704D5A860606D40F095
:100B20000400606594F85C1010208840304218D0B2
:100B300021680968090714D5A8602068016849037D
:100B400004D50068000308D5A16C07E00168C90559
:100B500003D4016821F008010160216C09B120462D
:100B6000884794F85C1020208840304231D02168BA
:100B70000968C9062DD5A86094F8350005282068B5
:100B8000016806D0490347D5006800031DD4616C95
:100B90001CE021F0160101602068416921F080010C
:100BA0004161206C08B9A06C20B12068016821F077
:100BB0000801016094F85C103F208840A86084F828
:100BC000358084F83490216D1FE0E16B09B1204637
:100BD0008847606D00282BD0606DC00714D00520B9
:100BE00084F835002068016821F001010160009857
:100BF000401C0090B84203D820680068C007F6D1B6
:100C000084F8358084F83490E16C002910D001B06C
:100C10002046BDE8F04308470168C905D5D40168FE
:100C200021F01001016084F8358084F83490CCE71D
:100C3000BDE8F8833C0000202DE9F041044600F0B7
:100C4000B9F906465CB1022084F83500002584F825
:100C500034502068016821F0010101600DE001209D
:100C6000BDE8F08100F0A6F9801B052805D92020F9
:100C70006065032084F83500F2E720680068C0074B
:100C8000F0D12268116820480140D4E901031843DB
:100C9000D4E903363343184363691843A3691843FF
:100CA000E3691843236A18430843616A042903D19E
:100CB000D4E90B1319430843106020684069666A41
:100CC00020F0070130460E43012704280CD1A06A0A
:100CD0000643E06A40B12046FFF79EFC20B1402069
:100CE000606584F83570BAE7206846612046FFF7F2
:100CF0007FFC94F85C203F2191408160656584F819
:100D000035700020ACE700003F8010F02DE9F04185
:100D10000446866D90F83400002501280DD001208E
:100D200084F8340094F835700020012F07D084F83F
:100D3000340002252846BDE8F0810220FBE70227A7
:100D400084F8357060652046FFF790FC94F85C10DD
:100D50003F208840B0602068016841F016010160C2
:100D6000206C20B12068016841F008010160206812
:100D7000016841F001010160DCE7000070B5044644
:100D800000F018F90546601C02D0044800780444BD
:100D900000F010F9401BA042FAD370BD30000020D3
:100DA0002DE9F84FDFF8BCA10022012503264FF002
:100DB0000F090AF1040BAAF1040E00BF0B6805FA33
:100DC00002F42340A34270D10F7907F00307012FEB
:100DD00001D0022F16D187684FEA420806FA08FCB4
:100DE00027EA0C07D1F80CC00CFA08FC4CEA070CF7
:100DF000C0F808C04768A7430C79C4F300149440B6
:100E00003C4344600C79E443A4070AD0C4684FEA29
:100E1000420C06FA0CF7BC438F6807FA0CF727431D
:100E2000C7600C7904F00304022C12D1D40800EB43
:100E3000840CDCF820405707FF0E09FA07F824EA73
:100E40000804D1F8108008FA07F848EA0408CCF83A
:100E5000208004684FEA420C06FA0CF7BC430F7975
:100E600007F0030707FA0CF7274307604C6814F4F0
:100E7000403F70D03C4C276847F480472760246887
:100E800022F0030704F480440094384C07EB040C70
:100E9000DCF8084897074FEA177809FA08F7BC43C7
:100EA000334FB84202D1002724E054E0314FB8421A
:100EB00001D101271EE0304FB84201D1022719E0CD
:100EC0002E4FB84201D1032714E02D4FB84201D173
:100ED00004270FE02B4FB84201D105270AE02A4F23
:100EE000B84201D1062705E0284FB84201D10727B3
:100EF00000E0082707FA08F72743CCF80878DAF863
:100F000000405746D1F804C09C435FEACC2C00D582
:100F10001C433C60DBF800405F46D1F804C09C43B2
:100F20005FEA8C2C00D51C433C60DEF8004077461D
:100F3000D1F804C09C435FEA8C3C00D51C433C6064
:100F4000084F083F3C68D1F804C09C435FEACC3CA2
:100F500000D51C433C60521C102AFFF42FAFBDE8A3
:100F6000F88F0000083C0140443802400030014046
:100F7000000002400004024000080240000C024051
:100F8000001002400014024000180240001C024001
:100F90000069084000D001207047426921EA02033D
:100FA0000A4043EA0241816170470AB1816170479A
:100FB0000904FBE70148806870470000300000200A
:100FC0000248816802781144816070473000002037
:100FD0000B4810B5016841F400710160016841F4EB
:100FE00080610160016841F480710160032000F0BC
:100FF0007FF80F2000F006F800F024F8002010BD64
:10100000003C024070B50D4D04464FF47A712878CB
:10101000B1FBF0F00A490968B1FBF0F000F0FCFA0E
:1010200048B9102C07D200222146501E00F040F88B
:1010300000206C6070BD012070BD000030000020F9
:101040003C0000200A4808B5016841F48041016075
:10105000006800F4804000900548001F016841F0DE
:1010600080510160006800F08050009008BD0000D1
:101070004438024000280DDB00F01F02012191409E
:101080004009800000F1E020C0F88011BFF34F8FCD
:10109000BFF36F8F7047002809DB00F01F020121AA
:1010A00091404009800000F1E020C0F80011704735
:1010B000F0B40E4B1B680C46C3F30223C3F10705C3
:1010C000042D00D90425191D072901D2002300E0B1
:1010D000DB1E012606FA05F1491E214099409E407B
:1010E000761E16403143F0BC02F05AB80CED00E019
:1010F000064900F0070208684FF6FF03184040EA6F
:101100000220034A10430860704700000CED00E025
:101110000000FA052DE9F0470E46050065D0DFF81E
:101120001481D8F80000F7B200F00700B04207D2EF
:1011300088F80070D8F8000000F00700B04254D1E1
:1011400028683D4C810712D5400703D5206840F43C
:10115000E05020602878000703D5206840F4604004
:1011600020602068A96820F0F000084320602878FB
:10117000C0072DD0304968680839012812D00228EC
:1011800013D0032811D00968890700292DDA2168B6
:1011900021F0030101432160FFF70CFF814641F27A
:1011A000883A0EE009688903EFE709688901ECE7EE
:1011B000FFF700FFA0EB0901514502D90320BDE86C
:1011C000F0872068696800F00C00B0EB810FEFD168
:1011D000D8F80010404601F00701B14207D9077066
:1011E000006800F00700B04201D00120E7E728784E
:1011F000400705D52068E96820F4E05008432060E6
:101200002878000706D52068296920F4604040EA64
:10121000C100206000F018F82168084AC1F30311EA
:10122000515CC8400649086006480068FFF7EAFEBE
:101230000020C4E7003C024008380240024B00088E
:101240003C00002034000020154810B5006810F064
:101250000C02144813D01449042A0FD0082A0ED1C6
:101260000F4C241F2268236802F03F025B0207D55F
:101270002068C0F38810A0FB010106E0084610BDFD
:101280002168C1F38811A1FB00010023FEF7ECFFE8
:101290002168C1F30141491C4900B0FBF1F010BDC8
:1012A000083802400024F40040787D012DE9F84F11
:1012B00004006ED02078DFF84C93C007A9F1040534
:1012C0004AD009F104000168C1F38101012908D065
:1012D0000068C0F3810002280AD1D9F8000040025A
:1012E00006D52868800337D560680028E1D033E050
:1012F0006068B0F5803F10D0B0F5A02F286810D0FE
:1013000020F480302860286820F4802028606068FD
:10131000A8B1FFF74FFE06460DE0286840F4803084
:10132000F4E740F480202860F7E700BFFFF742FEB3
:10133000801B642873D828688003F7D50CE0FFF77A
:1013400039FE064605E000BFFFF734FE801B642827
:10135000F0D828688003F7D42078DFF8AC828007C3
:101360004FF0000A3ED5A748001D016811F00C0F90
:1013700008D00068C0F3810002280BD1D9F8000022
:10138000400207D42868800716D5E068012800D1FC
:1013900012E033E1E068B8B10120C8F80000FFF7BF
:1013A00009FE064605E000BFFFF704FE801B022889
:1013B000C0D828688007F7D52868216920F0F80090
:1013C00040EAC10028600DE0C8F800A0FFF7F2FD78
:1013D000064604E0FFF7EEFD801B02281FD82868B0
:1013E0008007F7D42078000722D5864F87486169A7
:1013F000703771B101210160FFF7DCFD064604E0A2
:10140000FFF7D8FD801B022809D838688007F7D578
:101410000EE0C0F800A0FFF7CDFD064605E082E033
:10142000FFF7C8FD801B02287DD838688007F7D4F5
:101430002078400768D5DFF8CCB100270BF13C0BD2
:10144000DBF80000C0000BD4DBF8001041F0805145
:10145000CBF80010DBF80000012700F0805000906E
:101460006B4E3068C00510D4306840F48070306036
:10147000FFF7A0FD009005E0FFF79CFD0099401AE2
:10148000022850D83068C005F6D55E4EA0686C368C
:1014900001280FD00528306810D020F001003060FE
:1014A000306820F004003060A068B8B1FFF782FD1A
:1014B00000900FE0306840F00100F4E740F00400D5
:1014C0003060F7E7FFF776FD0099411A41F2883066
:1014D000814266D830688007F4D50EE0FFF76AFDD8
:1014E000009007E0FFF766FD0099411A41F288304D
:1014F000814256D830688007F4D42FB1DBF8001051
:1015000021F08051CBF80010A069C8B33D49091DF6
:101510000968C1F3810102294AD00228504607D048
:10152000C8F8600000E03CE0FFF744FD04463BE003
:101530004746C8F86000FFF73DFD064605E000BFDE
:10154000FFF738FD801B02282BD828688001F7D4CC
:10155000D4E907010843A16A2E4A490802EB014178
:10156000626A41EA8211084394F82C1040EA016152
:10157000C9F8001001203866FFF71CFD044606E09C
:101580003EE000BFFFF716FD001B022809D82868BF
:101590008001F7D534E000BFFFF70CFD001B0228E7
:1015A00002D90320BDE8F88F28688001F4D427E031
:1015B0000128F7D0D9F80000E26900F480019142D7
:1015C0001CD1226A00F03F01914217D147F6C07149
:1015D000626A0140B1EB821F10D1A26A4FF0FF3363
:1015E00000F4403103EB5202B1EB024F06D194F804
:1015F0002C1000F07060B0EB016F01D00120D1E73A
:101600000020CFE70438024000004742800E4742E6
:10161000007000400000FFFF10B5401EB0F1807F59
:1016200001D3012010BD4FF0E02460610F2160174D
:1016300001F0B6FD0020A06107202061002010BD50
:1016400070B5134C00682168884220D100212046E3
:1016500000F0E8FD0421204600F0E4FD08212046CA
:1016600000F0E0FD002280210A48FFF79EFC0A4DB1
:10167000002201212846FFF798FC0022022128467B
:10168000FFF793FC2068C16821F08001C16070BD44
:10169000200200200000024000040240704710B504
:1016A00090F83C20012A22D0012280F83C20CA6810
:1016B0008C6822F4407222434C6822F480622243F8
:1016C0000C6822F4006222430C6922F48052224307
:1016D0004C6922F400522243C969002322F480425B
:1016E0000A4301684A6480F83C30002010BD0220A3
:1016F00010BD000070B590F83C20012A32D00124C2
:1017000080F83C40022280F83D2003685A689D68BA
:1017100022F070060A6832435A60134B02689A42FC
:1017200014D0B2F1804F11D0104B9A420ED0104B12
:101730009A420BD00F4B9A4208D00F4B9A4205D0D9
:101740000E4B9A4202D00E4B9A4204D1496825F0C2
:1017500080031943916080F83D40002180F83C10DF
:10176000084670BD022070BD00000140000400402A
:1017700000080040000C004000040140004001400F
:101780000018004010B5040003D094F83D0010B1DB
:1017900007E0012010BD002084F83C00204600F046
:1017A0001FF8022084F83D00211D206801F032FB63
:1017B000012084F8460084F83E0084F83F0084F855
:1017C000400084F8410084F8420084F8430084F823
:1017D000440084F8450084F83D00002010BD00005E
:1017E000F0B587B0044614216846FEF7B4FD3D48C5
:1017F000226800243B49103802253B4EB2F1804F4D
:1018000014D03A4B9A4246D1086840F00200086072
:101810000868002200F00200059011461D20FFF725
:1018200047FC1D20FFF737FC07B0F0BD0A6842F007
:1018300001020A60096801F001010591016841F0A7
:1018400002010160016801F002010591016841F0A7
:1018500001010160006802AA00F0010005904FF448
:101860008160CDE90005012782E8B0006946204883
:10187000FFF796FAF803CDE9000502AA694682E867
:10188000B0003046FFF78CFA002211461C20FFF70B
:101890000FFC1C20C6E717498A42C5D11149091D12
:1018A0000A6842F002020A60096801F0020105912B
:1018B000016841F0010101600068694600F0010023
:1018C000059040200090CDE901540320CDE903406C
:1018D0003046FFF765FA002211462B20FFF7E8FBA0
:1018E0002B209FE7403802400000024000040040E7
:1018F000000402400004014090F83D10012901D08D
:1019000001207047022180F83D100168CA6842F04A
:101910000102CA6000681149884214D0B0F1804FBA
:1019200011D00F4988420ED00E4988420BD00E4983
:10193000884208D00D49884205D00D49884202D01E
:101940000C49884204D1816801F00701062903D0BF
:10195000016841F001010160002070470000014072
:101960000004004000080040000C0040000401405A
:10197000004001400018004070B5044690F83C005B
:101980000025012817D0012684F83C60022084F845
:101990003D002068826822F0770222F47F42826054
:1019A0000868502838D00DDC20284FD005DC90B3D3
:1019B000102811D14AE0022070BD302846D04028BE
:1019C0000AD13BE060282FD070280DD0B0F5805FA1
:1019D00003D0B0F5005F12D0012584F83D600020EF
:1019E00084F83C00284670BDCB68D1E9012120680D
:1019F00001F081FA2068816841F0770109E0CB6845
:101A0000D1E90121206801F076FA2068816841F46B
:101A100080418160E1E719E0CA684968206801F007
:101A20003FFB5021206806E0CA684968206801F041
:101A300089FB6021206801F068FACEE7CA6849682E
:101A4000206801F02DFB40212068F4E72268014660
:101A50001046F0E72DE9F0410068B0F1804F76D1F3
:101A60005D4C2069002872D0DFF870814FF400418E
:101A70004046FFF78DFA01260027012815D0276080
:101A8000574D08212846FFF783FA01280FD06760D9
:101A90004FF480612846FFF77BFA012809D0A76040
:101AA0002068012807D0E8B34DE02660E8E76660CB
:101AB000EEE7A660F4E7616811B1012920D042E0A9
:101AC000A168012901D091B13DE0002201214548E2
:101AD000FFF76BFA0021444800F040FB0421424824
:101AE00000F0A0FB0821404800F09CFB5FE00021D3
:101AF0003D4800F033FB04213B4800F093FB09E034
:101B0000A16801BB0021384800F08CFB0421364855
:101B100000F024FB0821344800F084FB00228021DF
:101B2000404600E008E0FFF740FA00220121284685
:101B3000FFF73BFA012245E06168012903D1A16862
:101B400031B1012911D06168084321D03EE040E065
:101B50000021254800F066FB0421234800F0FEFA2E
:101B60000821214800F05EFB0BE000211E4800F038
:101B700059FB04211C4800F055FB08211A4800F0CD
:101B8000EDFA012280214046FFF70FFA002214E00F
:101B9000A06801281AD10021134800F043FB04215A
:101BA000114800F03FFB08210F4800F0D7FA00224F
:101BB00080214046FFF7F9F9012201212846FFF76D
:101BC000F4F9002202212846FFF7EFF96069401C72
:101BD0006061BDE8F08100000400002000000240C8
:101BE0000004024000140240200200202DE9F041D0
:101BF000054690F83C0000260C46012810D0012034
:101C000085F83C0072B1042A1CD0082A2CD00C2A7A
:101C100050D00126002085F83C003046BDE8F08118
:101C20000220FBE7D4E90012E368286801F04AFAD1
:101C30002868816921F00C01816128688169A268A6
:101C400011430FE0D4E90012E368286801F08CFA30
:101C50002868816921F44061816128688169A268EE
:101C600041EA02218161D5E72868D4E9002C277B6D
:101C7000016A21F480710162C169036A21F00301E4
:101C800041EA0C0121F0F00C39074FF420674CEACF
:101C9000116123F4206307EA02221A43C161026240
:101CA0002868C16921F00C01C1612868C169A26876
:101CB000114328E02868D4E90027E168036A23F487
:101CC00080530362D0F81CC0036A2CF4407C4CEAB9
:101CD00007274FF6FF7C27F470470CEA01313943A0
:101CE0004FF4204723F4204307EA02321A43C1612C
:101CF00002622868C16921F44061C1612868C16934
:101D0000A26841EA0221C16184E710B5040003D052
:101D100094F83D0010B107E0012010BD002084F8C8
:101D20003C00204600F01EF8022084F83D00211DF2
:101D3000206801F06FF8012084F8460084F83E0026
:101D400084F83F0084F8400084F8410084F84200A1
:101D500084F8430084F8440084F8450084F83D008A
:101D6000002010BD7047000030B50446002551B179
:101D700004290DD0082910D094F8410094F845208A
:101D8000012811D10EE094F83E0094F84220F7E7C4
:101D900094F83F0094F84320F2E794F8400094F858
:101DA0004420EDE7012A01D0012030BD022059B1C5
:101DB000042912D0082919D084F8410084F845007C
:101DC0000C2944D0012540E084F83E0084F842000C
:101DD0002068C26842F0020210E084F83F0084F8F4
:101DE00043002068C26842F0040207E084F8400023
:101DF00084F844002068C26842F00802C2600122F0
:101E0000206801F06BF814492068884214D0B0F1C2
:101E1000804F11D0114988420ED0114988420BD011
:101E20001049884208D01049884205D00F4988429D
:101E300002D00F49884204D1816801F007010629C8
:101E400003D0016841F001010160284630BD2068DF
:101E5000C26842F01002D1E70000014000040040D7
:101E600000080040000C0040000401400040014018
:101E70000018004070B50446006801694FF0000585
:101E8000C943890715D4C168C943890711D4E91E1C
:101E9000016101202077206880698007204602D0F8
:101EA000FFF7D8FD04E000F0C3F8204600F055F934
:101EB000257720680169C943490717D4C168C94318
:101EC000490713D46FF004010161022020772068D4
:101ED000806910F4407F204602D0FFF7BBFD04E08C
:101EE00000F0A6F8204600F038F92577206801694F
:101EF000C943090716D4C168C943090712D46FF052
:101F000008010161042020772068C069800720460D
:101F100002D0FFF79FFD04E000F08AF8204600F0B1
:101F20001CF9257720680169C943C90617D4C1681F
:101F3000C943C90613D46FF010010161082020774E
:101F40002068C06910F4407F204602D0FFF782FD70
:101F500004E000F06DF8204600F0FFF825772068D7
:101F60000169C943C90708D1C168C943C90704D178
:101F7000891E0161204600F093F920680169C94378
:101F8000090609D4C168C943090605D46FF0800168
:101F900001612046FFF754FB20680169C9434906E7
:101FA00009D4C168C943490605D46FF040010161F5
:101FB000204600F097F920680169C94389060BD4CF
:101FC000C168C943890607D46FF02001016120462A
:101FD000BDE87040FFF762BB70BD000010B586B071
:101FE000044614216846FEF7B6F90E492068884277
:101FF00016D10D480021026842F004020260006818
:1020000000F0040005904FF4E07000900220CDE94C
:10201000010103200390049069460448FEF7C0FEC6
:1020200006B010BD000401403038024000080240F4
:10203000704770B5044690F83C0000260D46012814
:102040000FD0012084F83C006AB1042A1DD0082A70
:102050002FD00C2A3FD00126002084F83C003046C7
:1020600070BD022070BD206800F058FF20688169B3
:1020700041F0080181612068816921F004018161DA
:10208000206881692A69114311E0206800F076FF19
:102090002068816941F4006181612068816921F4CF
:1020A00080618161206881692A6941EA0221816138
:1020B000D2E7206800F098FF2068C16941F008016C
:1020C000C1612068C16921F00401C1612068C16952
:1020D0002A69114311E0206800F0BAFF2068C16945
:1020E00041F40061C1612068C16921F48061C1616E
:1020F0002068C1692A6941EA0221C161ACE710B5D3
:10210000040003D094F83D0010B107E0012010BD99
:10211000002084F83C00204600F01EF8022084F8DD
:102120003D00211D206800F075FE012084F8460066
:1021300084F83E0084F83F0084F8400084F84100B1
:1021400084F8420084F8430084F8440084F8450091
:1021500084F83D00002010BD7047704710B504465C
:10216000022249B104290ED0082913D094F8410065
:10217000012816D0012010BD94F83E000128F9D1A5
:1021800084F83E200FE094F83F000128F2D184F853
:102190003F2008E094F840000128EBD184F840206B
:1021A00001E084F841200122206800F097FE1649E2
:1021B0002068164A884201D0904203D1436C43F410
:1021C000004343642068884213D0B0F1804F10D0A0
:1021D0000F4988420DD00F4988420AD00E498842E3
:1021E00007D0904205D00D49884202D00C49884260
:1021F00004D1816801F00701062903D0016841F08C
:1022000001010160002010BD0000014000040140F8
:102210000004004000080040000C00400040014065
:102220000018004030B504460D460068002200F05A
:1022300055FE194B41F2111120688A10984202D0C4
:10224000164B984209D1036A0B4206D1036A134226
:1022500003D1436C23F4004343642068036A0B42B8
:1022600006D1016A114203D1016821F00101016028
:1022700001203DB1042D08D0082D09D084F841007B
:10228000002030BD84F83E00FAE784F83F00F7E70D
:1022900084F84000F4E70000000001400004014021
:1022A00010B500680C49884214D102210B48FEF792
:1022B00074FE0B484FF434724169C1EB011189007F
:1022C00091FBF2F100EE101A0021B8EEC00A80ED89
:1022D0000A0A416110BD00000004004000140240E1
:1022E000040000207047FEE770B50646002440F267
:1022F0003F11204600F054F900F08EFA4FF4963565
:10230000304600F05FFA641CAC42F9D3BDE870407F
:1023100001221103014800F03FB80000000802400C
:102320001A4810B5016886B041F0040101600168E7
:1023300001F004010591016841F0020101600068AB
:10234000694600F002000590012001900290000310
:1023500000900F48FEF724FD20200E4C00906946A7
:102360002046FEF71DFD002220212046FEF71DFE1F
:10237000002141F28830491C8142FCD301222021F6
:102380002046FEF712FE06B010BD000030380240B5
:102390000008024000040240FEF707BE203AD2B215
:1023A000034B02EB420203EB021200F01BB80000E9
:1023B0002A3900082DE9F041002500EB40000E46C7
:1023C0002C46C70007E0F8B22146FFF7E7FF1034BC
:1023D0006D1CA4B2761C3278002A01D0142DF2D3E1
:1023E000BDE8F0812DE9F05FA1F23F11C1F1000AD3
:1023F0009146002604461FFA8AF100F0D1F8012721
:10240000DFF84C804FF4805B00F006FA5FF00005C7
:1024100039F8160007FA05F10842404601D1408814
:1024200000E0008800F0CEF96D1C102DF0D30122E1
:1024300059460848FFF7B0FF641CE4B21FFA8AF15E
:10244000204600F0ADF8761C182EDDD3BDE8F09FD5
:1024500000000020000802402DE9F041074642F24A
:102460001070B2FBF0F014463030C2B20D46C1F528
:10247000A07081B23846FFF791FF4FF47A70B4FB39
:10248000F0F00A26B0FBF6F106FB11003030C2B2C4
:10249000C5F5A87081B23846FFF780FF6420B4FB11
:1024A000F0F0B0FBF6F106FB11003030C2B2C5F51A
:1024B000B07081B23846FFF771FFB4FBF6F0B0FBA5
:1024C000F6F106FB11003030C2B2C5F5B87081B22A
:1024D0003846FFF763FFB4FBF6F006FB10403030E0
:1024E000C2B2C5F5C07081B23846BDE8F041FFF711
:1024F00055BF000070B5274886B0016841F004015F
:102500000160016801F004010591016841F00201D8
:102510000160016801F002010591016841F00801C4
:102520000160016801F008010591016841F0400176
:1025300001600068184E00F0400005900120C403BF
:1025400001900290694600943046FEF729FCA511DF
:10255000694630460095FEF723FC802000906946CE
:102560003046FEF71DFCFF20009069460B48FEF741
:1025700017FC012280213046FEF717FD0122294673
:102580003046FEF712FD012221463046FEF70DFDD2
:1025900006B070BD30380240000C02400018024006
:1025A00010B50C460146202000F044F92146BDE854
:1025B0001040212000F03EB901B5BDF800000149EE
:1025C000088008BD0000002010B5FFF7A9FEFFF746
:1025D00091FF0A2000F0F4FD0121002000F02AF90B
:1025E0004FF48071012000F025F94FF4E0610220E2
:1025F00000F020F941F23001032000F01BF9002126
:10260000042000F017F940F20221082000F012F92E
:102610000021092000F00EF900210A2000F00AF93B
:1026200000210C2000F006F900210D2000F002F935
:1026300000210F2000F0FEF80021102000F0FAF831
:102640000021112000F0F6F80021122000F0F2F82D
:102650000021132000F0EEF80A2000F0B1FD41F255
:10266000B071102000F0E6F840F23711112000F0B0
:10267000E1F80A2000F0A4FD40F23911122000F028
:10268000D9F80A2000F09CFD4FF4E851132000F027
:10269000D1F81321292000F0CDF80A2000F090FD98
:1026A0000021202000F0C6F80021212000F0C2F80F
:1026B0000621302000F0BEF840F20111312000F078
:1026C000B9F80321322000F0B5F84FF483713520BA
:1026D00000F0B0F840F60231362000F0ABF840F2DE
:1026E0000231372000F0A6F840F20771382000F0E0
:1026F000A1F80721392000F09DF84FF4C0613C207B
:1027000000F098F840F20B213D2000F093F80021F2
:10271000502000F08FF8EF21512000F08BF80021BD
:10272000522000F087F840F23F11532000F082F869
:102730004FF42741602000F07DF80121612000F076
:1027400079F800216A2000F075F80021802000F05F
:1027500071F80021812000F06DF80021822000F046
:1027600069F80021832000F065F80021842000F042
:1027700061F80021852000F05DF81021902000F024
:1027800059F80021922000F055F80321932000F021
:1027900051F84FF48871952000F04CF800219720F3
:1027A00000F048F80021982000F044F841F21801A8
:1027B000032000F03FF8BDE8104040F273110720FD
:1027C00000F038B82DE9F041114E04460122802175
:1027D0003046FEF7EAFB0F4D200A28604FF4004711
:1027E000002239463046FEF7E0FB012239463046EA
:1027F000FEF7DBFB2C60002239463046FEF7D5FBA6
:1028000039463046BDE8F0410122FEF7CEBB00005C
:10281000000C02401418024010B5222000F046F8C7
:10282000BDE8104000224FF480510148FFF7B4BDCD
:10283000000802402DE9F0470C4600F037F8DFF8B9
:1028400060804FF48056002231464046FFF7A4FDD9
:10285000DFF85090012280214846FEF7A6FB124D7A
:10286000200A2860F700002239464846FEF79DFB03
:10287000012239464846FEF798FB2C600022394673
:102880004846FEF792FB012239464846FEF78DFB8B
:1028900031464046BDE8F0470122FFF77DBD00000C
:1028A00000080240000C0240141802402DE9F047D5
:1028B000DFF8688007464FF48055002229464046DD
:1028C000FFF76AFDDFF85890002280214846FEF7A6
:1028D0006CFB144C002020600246EE003146484656
:1028E000FEF763FB012231464846FEF75EFB276098
:1028F000002231464846FEF758FB01223146484641
:10290000FEF753FB012280214846FEF74EFB294685
:102910004046BDE8F0470122FFF73EBD00080240F7
:10292000000C0240141802407FB5002415480094A2
:10293000019402941249039401604FF48031C0E97C
:1029400001140461047680F820400F49C0E90A149C
:102950000125C561C46080F830504561FDF747FF2F
:1029600008B1FDF798FE0E20CDE9000569460294F6
:102970000448FDF793FE002801D0FDF78CFE7FBDD3
:1029800000200140400000200100000F7FB500241E
:1029900015480094019402941249039401604FF485
:1029A0008031C0E901140461047680F820400F49A9
:1029B000C0E90A140125C561C46080F83050456142
:1029C000FDF715FF08B1FDF766FE0720CDE900050C
:1029D000694602940448FDF761FE002801D0FDF726
:1029E0005AFE7FBD00220140880000200100000F38
:1029F0000D4808B5016841F48001016000680022BB
:102A000000F48000009011463820FEF751FB38207A
:102A1000FEF741FB002211463920FEF749FBBDE8D5
:102A200008403920FEF737BB303802402DE9F0432B
:102A300087B014216846FDF78EFC384800260168EF
:102A400041F020010160016801F020010591016859
:102A500041F080010160016801F080010591016889
:102A600041F001010160016801F001010591016877
:102A700041F004010160016801F004010591016861
:102A800041F002010160016801F002010591016855
:102A900041F0400101600068214F00F04000012238
:102AA000059011463846FEF780FA0022022138468A
:102AB000FEF77BFADFF86C80002280214046FEF7AB
:102AC00074FADFF86490002203214846FEF76DFA9D
:102AD000032501240095CDE9014669463846039651
:102AE000FEF75EF98020CDE9000469464046CDE955
:102AF0000245FEF755F9CDE9005469464846CDE94F
:102B00000245FEF74DF9A002CDE9000669460294A0
:102B10000648FEF745F907B0BDE8F08330380240BB
:102B2000001402400000024000040240001802406D
:102B300010B58AB000242B48049405940694079499
:102B4000089409940094019402944FF080410394F6
:102B500001605321C0E901144FF6FF71C0E903146D
:102B600080218161FEF70EFE08B1FDF794FD4FF460
:102B70008050049004A91B48FEF7FEFE08B1FDF743
:102B80008AFD1848FFF7C1F808B1FDF784FD0894E5
:102B900008A914480994FEF7ADFD08B1FDF77BFDC7
:102BA0000A2000900120CDE90104082003900022B2
:102BB00069460C48FFF71AF808B1FDF76CFD0422CE
:102BC00069460848FFF712F808B1FDF764FD0822CE
:102BD00069460448FFF70AF8002801D0FDF75BFDBD
:102BE0000AB010BD9001002010B586B0002418482E
:102BF0000094019402940394049414490594016090
:102C000041F26701C0E9011442F20F71C0E90314F7
:102C100080218161FEF7B6FD08B1FDF73CFD4FF460
:102C20008050009069460A48FEF7A6FE08B1FDF7FD
:102C300032FD049404A906480594FEF75BFD0028C4
:102C400001D0FDF728FD06B010BD000000040040D3
:102C5000D801002030B595B000240F941094119441
:102C6000129413941C2168461494FDF774FB2021E0
:102C700007A8FDF770FB31482F49C0E9001441F265
:102C80006801C0E9024180210461C0E90541FEF705
:102C900079FD08B1FDF7FFFC4FF480550FA92748D7
:102CA0000F95FEF769FE08B1FDF7F5FC2348FFF725
:102CB00026FA08B1FDF7EFFC139413A91F481494EA
:102CC000FEF718FD08B1FDF7E6FC6020CDE9000431
:102CD00002940394049405940022694617480694CC
:102CE000FFF7A7F908B1FDF7D6FC0422694613489F
:102CF000FFF79FF908B1FDF7CEFC082269460F489F
:102D0000FFF797F908B1FDF7C6FC4FF40060079094
:102D10004010CDE90804CDE90A450C9407A90748FD
:102D20000E94FEF7BCFC08B1FDF7B5FC0348FFF7B5
:102D300055F915B030BD000000040140200200200C
:102D4000FEE7FEE77047FFF73FBC7047FEF738B974
:102D500030B593B030216846FDF7FDFA14210CA878
:102D6000FDF7F9FA1C480025016841F08051016027
:102D7000006800F0805011901848016841F48041CB
:102D800001600068022400F480401190012003904B
:102D900010200490009406940820CDE90750542098
:102DA000CDE9090404200B906846FEF77FFA08B1CC
:102DB00072B6FEE70CA90F2081E831004FF4805075
:102DC0000F90109002210CA8FEF7A4F9002801D062
:102DD00072B6FEE713B030BD4038024000700040CC
:102DE0000248016841F470010160704788ED00E01D
:102DF0000148FFF73FB80000900100200148FFF7AD
:102E000039B80000D80100200148FFF733B80000AE
:102E100020020020F0B50268254C264D264E274F93
:102E2000274B4FF0804CA04209D0604507D0A84204
:102E300005D0B04203D0B84201D0984204D122F06C
:102E4000700E4A6842EA0E02A0421BD0604519D0BB
:102E5000A84217D0B04215D0B84213D0984211D032
:102E6000184DA8420ED0184DA8420BD0174DA842BD
:102E700008D0174DA84205D0164DA84202D0164DD5
:102E8000A84203D122F44075CA682A434D6922F052
:102E900080022A4302608A68C2620A688262A04293
:102EA00001D0984201D10969016301214161F0BD5E
:102EB000000001400004004000080040000C0040F9
:102EC000000401400040014000440140004801402E
:102ED00000180040001C00400020004010B501F028
:102EE0001F030121046A99408C430462016A9A40DD
:102EF0001143016210BD10B5846842EA032224F434
:102F00007F440A432243826010BD826822F070022F
:102F10000A4342F00701816070470000F0B5026A81
:102F200022F001020262036A42688469124E24F0B0
:102F300073050C682C4323F002058B682B430D4D61
:102F4000A84201D0B04205D123F00807CB683B432B
:102F500023F00403A84201D0B04205D14D6922F408
:102F6000407215438A692A4342608461496841631B
:102F70000362F0BD0000014000040140F0B5026AA8
:102F800022F010020262026A436884690D6824F428
:102F9000E64444EA05248D6822F0200242EA051244
:102FA0000F4D104EA84201D0B04206D1CF6822F09A
:102FB000800242EA071222F04002A84201D0B04249
:102FC00007D14D6923F4406343EA85038D6943EAE1
:102FD000850343608461496881630262F0BD00003B
:102FE0000000014000040140F0B5026A22F4807242
:102FF0000262026A4368C46922F4007224F0730515
:103000000C68124E2C438D6842EA05220E4DA842F0
:1030100001D0B04206D1CF6822F4006242EA072212
:1030200022F48062A84201D0B04207D14D6923F456
:10303000405343EA05138D6943EA05134360C461B5
:103040004968C1630262F0BD000001400004014014
:1030500030B5026A22F480520262046A4268C3698F
:103060000D6823F4E64343EA05238D6824F40054F5
:1030700044EA0534084DA84202D0084DA84204D1C4
:103080004D6922F4804242EA85124260C361496878
:103090000164046230BD00000000014000040140F2
:1030A00010B5036A046A24F001040462846924F000
:1030B000F00444EA021423F00A020A438461026223
:1030C00010BD000070B5046A24F001040462846934
:1030D000056A154EB04214D0B0F1804F11D0134E96
:1030E000B0420ED0124EB0420BD0124EB04208D0B9
:1030F000114EB04205D0114EB04202D0104EB04237
:1031000003D124F00304144301E044F001041A073E
:1031100024F0F00444EA126225F00A0301F00A01E7
:1031200019438261016270BD00000140000400404B
:1031300000080040000C0040000401400040014035
:103140000018004010B5036A23F01003036283697E
:10315000046A23F4704343EA023224F0A00343EAF2
:1031600001118261016210BD30B5046A24F01004BF
:1031700004628469056A24F4407444EA022222F459
:1031800070444FF6FF7202EA03322243A02425F076
:10319000A00304EA011119438261016230BDFEE718
:1031A0000907090E002804DB00F1E02080F8001474
:1031B000704700F00F0000F1E02080F8141D704708
:1031C00001B581B00449019848430090002801D01E
:1031D000401EFAE70CBD0000A0860100FDF7F8FED6
:1031E000FFF7B6FDFFF722FCFFF702FCFFF7CEFB6F
:1031F000FFF79AFBFFF79CFCFFF7F6FCFFF72AFDB1
:10320000FFF7A1FD65480088FFF76EF81F20FFF764
:10321000D3F93820FDF72EFF614D2868C16841F0D1
:103220008001C1605F48FEF767FB00215E48FEF742
:103230009BFD04215C48FEF797FD08215A48FEF7E4
:1032400093FD5948FEF758FBDFF86081584C42F275
:1032500010794FF480674FF0010A394646464046E0
:10326000FDF796FE48B949460220401C8842FCDB27
:1032700039463046FDF78CFEF8B1206901281ED092
:1032800000214748FEF7CEFF04214548FEF7CAFF5C
:1032900008214348FEF7C6FF002280214548FDF77C
:1032A00084FE454E002201213046FDF77EFE0022BD
:1032B00002213046FDF779FECFE7C4F810A0E068A0
:1032C00050B93948FEF7C6FB0420FDF757FD3648D4
:1032D000FEF7C0FBC4F80CA035490122183137486D
:1032E000FDF730FB32484FF4FA51183040F6FF76C4
:1032F00000684843B0FBF6F0E0612968486329683C
:1033000088632968C8633220FDF738FD2849012207
:1033100020312B48FDF716FB254840F6E4412030CC
:1033200000684843B0FBF6F000F0E9F99FED251B7B
:1033300053EC112B00F0F6F99FED241B53EC112BED
:1033400000F058F800F0AEF960621F20FFF734F982
:1033500020A10220FFF72EF894ED0A0A4FF496768A
:103360003146BDEEC00A462010EE102AFFF774F871
:103370001BA10520FFF71EF8E0695021B0FBF1F218
:1033800031468C20FFF768F817A10720FFF712F8E5
:103390003146D220626AFFF75FF85EE70200002044
:1033A00020020020D80100209001002000180240D7
:1033B00004000020000002400004024088000020B9
:1033C000400000200C0742B28009F23F48E17A1425
:1033D000AE471D40424C44432073706565643A001B
:1033E00050574D3A00000000566F6C746167653AA3
:1033F000000000002DE9C04130B4DFF8A0C23CEA73
:10340000111418BF3CEA131400F0EC8081EA0305A4
:103410001CEA111444EAD57418BF1CEA131500F015
:10342000C780A4EB05044FF0004545EAC12145EAF9
:10343000C32341EA505143EA525304F17F74994245
:1034400004F500344FEAC0204FEAC22208BF904280
:1034500000F09C804FEA13650FF24016765D4FEA4C
:10346000134506FB05F7C7F1807706FB07F74FEA20
:10347000D737A7FB03687642C8F58038A7FB06CE8E
:1034800038BFA8F1010807FB08E64FF0000EA6FBC5
:10349000028CE6FB03CEDCF1000CCEF1004E38BF0F
:1034A000AEF1010EA6FB0C584FF000074FF00005DF
:1034B000E6FB0E87A1FB08C6A0FB07CE16EB0E06A7
:1034C00045F10005E1FB076515F1E04E7EBFA4F56F
:1034D00080345FEA46066D4116F1800745F100052C
:1034E0004FEA17274FEA066647EA0567A6F1DE4668
:1034F000B6F1805F4FEA15251FD9384624F0010C3C
:1035000005EBC471BCF1FE6F01EB0C1102D8F0BCED
:10351000BDE8008124425CBF01F5801E9EEAC47FA5
:1035200002D4F0BCBDE80081244238D4F0BCA1F143
:10353000C041BDE8004100F0EDB94FEAD22242EAB5
:1035400043524FEAD323A7FB02864FEAD02040EA3A
:10355000415007FB03661EEA0E0F4FEAD12105FB1F
:10356000026658BFA6EB0056B6EB00564FEA520E65
:103570004EEAC37E18EB0E0E56EB530EBDD518EB7C
:1035800002085E417F1C55F10005B6E74FF4801537
:103590004FF000074FF000064FF00008ADE7F0BC19
:1035A0004FF0000001F1C04101F00041BDE8008191
:1035B00011EA0C1F0CEA131500D00CE013EA0C1FE3
:1035C00000F025804FF00000F0BC81EA030101F01B
:1035D0000041BDE80081F0BCBDE8004181EA030183
:1035E00000F098B9F0BCBDE8004170B500F044F9B6
:1035F000097EFC3E00F007B881EA03014FF00000AD
:1036000001F00041704781EA030100F083B9F0BC8A
:10361000BDE800414FF0000021497047FFFDFBF974
:10362000F7F5F4F2F0EEEDEBE9E8E6E4E3E1E0DEF5
:10363000DDDBDAD8D7D5D4D3D1D0CFCDCCCBCAC867
:10364000C7C6C5C4C2C1C0BFBEBDBCBBBAB9B8B78E
:10365000B6B5B4B3B2B1B0AFAEADACABAAA9A8A881
:10366000A7A6A5A4A3A3A2A1A09F9F9E9D9C9C9B4F
:103670009A999998979796959594939392919190FA
:103680008F8F8E8E8D8C8C8B8B8A8989888887878B
:103690008685858484838382828181800000FF0700
:1036A0000000F87F4FEA1153A3F58063D3F11E03A6
:1036B000A8BFD3F1200C08DB4FF0004242EAC12240
:1036C00052EA505232FA03F0704709420BD4102BE1
:1036D000C4BF0020704703F5787CBCF1FF3F05D0E4
:1036E0004FF0FF3070474FF00000704770B500F0AA
:1036F000C3F800BF4992248000207047F0E7B0FA79
:1037000080F310FA03F10AD0C3F11D0303F58063BF
:103710004FEA41504FEA035202EBD12170474FF07C
:1037200000007047DFF848C170B51CEA111E1EBFCB
:103730001CEA13159EEA0C0F95EA0C0F00F06F803F
:1037400081EA030423EA4C134EEAD47E21EA4C11A9
:1037500041F4801143F48013AE44A1FB024CA0FB62
:103760000365AEF17F7E361955EB0C05A1FB034CCA
:103770004CF10003A0FB021C16EB0C06654153F153
:103780000003094218BF46F0010613F4007F0BD175
:103790004FEA03314FEA0530340341EA155140EA5C
:1037A00016506FF003020AE04FEAC3214FEAC5202A
:1037B000F40241EA555140EA56506FF0020202EB22
:1037C0002E4201EB025585EACE710AD05FEA440C25
:1037D00018BF24F0004450F1000041F1000120EA3C
:1037E000D47040F2FE7C624500D270BDA84214BF86
:1037F0004FF080444FF04044002E08BF0024BEF13B
:10380000806FA8BFA1F1C041BDE8704080F2828006
:103810004FF0000001F1C04101F0004170479EEA05
:103820000C0F0CEA131518BF95EA0C0F06D04FF0D9
:10383000000081EA030E0EF0004170BD00F01CF89C
:103840008900013E00F007B800F009B84FEA430CC8
:103850005FEA5C5C08D081EA030100F05BB84FEAE4
:10386000410C5FEA5C5CF6D14FF000000149704703
:103870000000FF070000F87F0EF1020E2EF0030E8D
:103880005EF8046B364205D4012A43EB030515F5B7
:10389000001F12D8012841EB010C1CF5001F0CD8A9
:1038A0000ED14FEAD17C15F5001F0CEB4C0C0CF13E
:1038B000020C08BF4CEBD37C04E04FF0080C01E095
:1038C0004FEAD37C0CEB4C0526FA05F606F007060A
:1038D000B6F1040C06D20EEB860CBDE870404CF03D
:1038E000010C6047DFE80CF0090B02024FF00041C9
:1038F0004FF00000A1F5002170BD194610460128C7
:1039000051EB010418BFD4F5001484BF002001F06E
:10391000004170BD0808A0F500114FEA3101704761
:103920004FF04070E1EE100A704700000000000008
:103930000000000000000000000000000000000087
:103940000000000000000000000000000000000077
:103950000000000000000000000000008001800165
:10396000800180018001800180018001800180014F
:1039700080018001800100000000800180010000C2
:103980000000000000000000000000000000CC006B
:10399000CC00CC00CC00CC00CC000000000000002B
:1039A0000000000000000000000000000000000017
:1039B0000000000000000000000000000000000007
:1039C000000000000000600C600C600C3006300647
:1039D000FE1FFE1F300638071803FE1FFE1F1803C8
:1039E00018038C018C018C01000000008000E003B2
:1039F000F80F9C0E8C1C8C188C009800F801E007C6
:103A0000800E801C8C188C189C18B80CF00FE003EA
:103A100080008000000000000000000000000000A6
:103A20000E181B0C110C11061106110311039B013A
:103A30008E01C038C06C6044604430443044184447
:103A4000186C0C380000000000000000E001F003DA
:103A50003807180618063003F001F000F8009C3112
:103A60000E33061E061C061C063FFC73F0210000E8
:103A700000000000000000000000000000000C003A
:103A80000C000C000C000C000C00000000000000FA
:103A90000000000000000000000000000000000026
:103AA0000000000000000000000000000002000311
:103AB0008001C000C00060006000300030003000B5
:103AC0003000300030003000300060006000C00086
:103AD000C000800100030002000000002000600020
:103AE000C0008001800100030003000600060006FC
:103AF0000006000600060006000600030003800121
:103B00008001C000600020000000000000000000F4
:103B1000000000000000C000C000D806F807E00167
:103B20003003380700000000000000000000000023
:103B30000000000000000000000000000000000085
:103B400000000000000080018001800180018001F0
:103B5000FC3FFC3F8001800180018001800100006A
:103B60000000000000000000000000000000000055
:103B70000000000000000000000000000000000045
:103B80000000000000000000000000008001800133
:103B900000010001800000000000000000000000A3
:103BA0000000000000000000000000000000000015
:103BB0000000E007E0070000000000000000000037
:103BC00000000000000000000000000000000000F5
:103BD00000000000000000000000000000000000E5
:103BE000000000000000000000000000C000C00055
:103BF000000000000000000000000000000C000CAD
:103C00000006000600060003000300038003800195
:103C100080018001C000C000C000600060000000A2
:103C2000000000000000000000000000E003F007BA
:103C3000380E180C0C180C180C180C180C180C1842
:103C40000C180C180C18180C380EF007E0030000C4
:103C500000000000000000000000000000018001E2
:103C6000C001F0019801880180018001800180017C
:103C700080018001800180018001800180010000BD
:103C8000000000000000000000000000E003F80F4A
:103C9000180C0C180C1800180018000C0006000373
:103CA0008001C000600030001800FC1FFC1F0000F5
:103CB000000000000000000000000000E001F80724
:103CC000180E0C0C0C0C000C0006C003C007000CF6
:103CD000001800180C180C18180CF807E003000066
:103CE000000000000000000000000000000C000EBA
:103CF000000F000F800DC00C600C600C300C180C15
:103D00000C0CFC3FFC3F000C000C000C000C0000F5
:103D1000000000000000000000000000F80FF80F95
:103D2000180018000C00EC03FC071C0E001C001807
:103D3000001800180C181C0C180EF807E0030000FF
:103D4000000000000000000000000000C007F00FAD
:103D5000381C181818000C00CC03EC0F3C0E1C1C6F
:103D60000C180C180C18181C380EF007E003000093
:103D7000000000000000000000000000FC1FFC1F0D
:103D8000000C00060006000380038001C001C00093
:103D9000E000600060007000300030003000000083
:103DA000000000000000000000000000E003F00739
:103DB000380E180C180C180C3806F007F007180C01
:103DC0000C180C180C180C18380CF80FE003000035
:103DD000000000000000000000000000E003F00709
:103DE000380E1C0C0C180C180C181C1C381EF81B58
:103DF000E0190018000C000C1C0EF807F001000080
:103E000000000000000000000000000000000000B2
:103E100000000000000080018001000000000000A0
:103E20000000000000000000000080018001000090
:103E30000000000000000000000000000000000082
:103E40000000000000008001800100000000000070
:103E5000000000000000000000008001800100015F
:103E600000018000000000000000000000000000D1
:103E7000000000000000000000000010001C800F87
:103E8000E003F8001800F800E003800F001C0010A9
:103E90000000000000000000000000000000000022
:103EA00000000000000000000000F81F00000000FB
:103EB0000000F81F000000000000000000000000EB
:103EC00000000000000000000000000000000000F2
:103ED0000000000000000000000008003800F001B1
:103EE000C007001F0018001FC007F00138000800BD
:103EF000000000000000000000000000E003F80FD8
:103F0000180C0C180C180018000C00060003800197
:103F1000C000C000C00000000000C000C0000000E1
:103F20000000000000000000000000000000E007AA
:103F300018180420C229224A11440944094409449A
:103F400009221113E20C024004201818E0070000B7
:103F5000000000000000000000000000800380035B
:103F6000C006C006C006600C600C3018301830184F
:103F7000F83FF83F1C700C600C6006C006C00000E3
:103F8000000000000000000000000000FC03FC0F27
:103F90000C0C0C180C180C180C0CFC07FC0F0C1853
:103FA0000C300C300C300C300C18FC1FFC070000DF
:103FB000000000000000000000000000C007F01F2B
:103FC00038381C300C70066006000600060006003B
:103FD0000600060006600C701C30F01FE0070000B1
:103FE000000000000000000000000000FE03FE0FC3
:103FF000060E061806180630063006300630063063
:104000000630063006180618060EFE0FFE030000E6
:10401000000000000000000000000000FC3FFC3F2A
:104020000C000C000C000C000C00FC1FFC1F0C0012
:104030000C000C000C000C000C00FC3FFC3F0000CE
:10404000000000000000000000000000F83FF83F02
:1040500018001800180018001800F81FF81F1800A2
:1040600018001800180018001800180018000000A8
:10407000000000000000000000000000E00FF83F1A
:104080003C780E6006E007C00300030003FE03FE59
:1040900003C007C006C00EC03CF0F83FE00F0000B0
:1040A0000000000000000000000000000C300C3098
:1040B0000C300C300C300C300C30FC3FFC3F0C3022
:1040C0000C300C300C300C300C300C300C3000004C
:1040D00000000000000000000000000080018001DE
:1040E00080018001800180018001800180018001C8
:1040F0008001800180018001800180018001000039
:1041000000000000000000000000000000060006A3
:10411000000600060006000600060006000600066F
:1041200000060006180618063807F003E001000034
:10413000000000000000000000000000063006182B
:10414000060C060606038601C60066007600DE0041
:104150008E0106030606060C0618063006600000EF
:10416000000000000000000000000000180018001F
:10417000180018001800180018001800180018007F
:1041800018001800180018001800F81FF81F000089
:104190000000000000000000000000000EE01EF023
:1041A0001EF01EF036D836D836D836D866CC66CC57
:1041B00066CCC6C6C6C6C6C6C6C686C386C300000B
:1041C0000000000000000000000000000C301C3067
:1041D0003C303C306C306C30CC30CC308C310C33DB
:1041E0000C330C360C360C3C0C3C0C380C300000FC
:1041F000000000000000000000000000E007F81FC1
:104200001C380E70066003C003C003C003C003C0A7
:1042100003C003C006600E701C38F81FE0070000E2
:10422000000000000000000000000000FC0FFC1F68
:104230000C380C300C300C300C300C18FC1FFC0708
:104240000C000C000C000C000C000C000C0000001A
:10425000000000000000000000000000E007F81F60
:104260001C380E70066003E003C003C003C003C027
:1042700003C007E006630E3F1C3CF83FE0F700C0B8
:10428000000000000000000000000000FE0FFE1F04
:1042900006380630063006300638FE1FFE070603D5
:1042A0000606060C061806180630063006600000E2
:1042B000000000000000000000000000E003F80F14
:1042C0001C0C0C180C180C001C00F803E00F001E4E
:1042D0000038063006300E301C1CF80FE0070000D6
:1042E000000000000000000000000000FE7FFE7FD4
:1042F00080018001800180018001800180018001B6
:104300008001800180018001800180018001000026
:104310000000000000000000000000000C300C3025
:104320000C300C300C300C300C300C300C300C30AD
:104330000C300C300C300C301818F81FE00700005F
:1043400000000000000000000000000003600630D4
:10435000063006300C180C180C18180C180C380EF7
:1043600030063006700760036003C001C001000022
:104370000000000000000000000000000360C361B6
:10438000C361C3616633663366336633663366334F
:104390006C1B6C1B6C1B2C1A3C1E380E380E00005C
:1043A0000000000000000000000000000FE00C70A2
:1043B00018303018700C600EC00780038003C003F3
:1043C000E006700C301C18180C300E6007E000007E
:1043D00000000000000000000000000003C00660B4
:1043E0000C301C383818300C6006E007C003800120
:1043F0008001800180018001800180018001000036
:10440000000000000000000000000000FC7FFC7FB6
:10441000006000300018000C000600038001C0009E
:104420006000300018000C000600FE7FFE7F0000D8
:10443000000000000000000000000000E003E003B6
:10444000600060006000600060006000600060006C
:10445000600060006000600060006000600060005C
:1044600060006000E003E003000000003000300066
:10447000600060006000C000C000C000C00180019A
:104480008001800100030003000300060006000015
:10449000000000000000000000000000E003E00356
:1044A00000030003000300030003000300030003F4
:1044B00000030003000300030003000300030003E4
:1044C00000030003E003E003000000000000C0015F
:1044D000C00160036003600330063006180C180C3E
:1044E00000000000000000000000000000000000CC
:1044F00000000000000000000000000000000000BC
:1045000000000000000000000000000000000000AB
:10451000000000000000000000000000FFFFFFFF9F
:104520000000000000000000000000000C000C0073
:104530000C000C000C000C0000000000000000004B
:10454000000000000000000000000000000000006B
:10455000000000000000000000000000000000005B
:10456000000000000000F003F8071C0C0C0C000F0A
:10457000F00FF80C0C0C0C0C1C0FF80FF0180000CE
:1045800000000000000000000000000018001800FB
:10459000180018001800D803F80F380C181818184D
:1045A0001818181818181818380CF80FD803000025
:1045B00000000000000000000000000000000000FB
:1045C000000000000000C003F007300E180C1800B7
:1045D000180018001800180C300EF007C003000077
:1045E000000000000000000000000000001800189B
:1045F000001800180018C01BF01F301C18181818DD
:104600001818181818181818301CF01FC01B0000B4
:10461000000000000000000000000000000000009A
:10462000000000000000C003F00F300C1818F81F45
:10463000F81F180018003818301CF00FC0070000D1
:10464000000000000000000000000000800FC00F0C
:10465000C000C000C000F007F007C000C000C000EC
:10466000C000C000C000C000C000C000C00000000A
:10467000000000000000000000000000000000003A
:10468000000000000000E00DF80F180E0C0C0C0CE0
:104690000C0C0C0C0C0C0C0C180EF80FE00D000C94
:1046A0000C0C1C06F807F0010000000018001800B0
:1046B000180018001800D807F80F381C1818181818
:1046C000181818181818181818181818181800009A
:1046D000000000000000000000000000C000C0005A
:1046E000000000000000C000C000C000C000C0000A
:1046F000C000C000C000C000C000C000C00000007A
:10470000000000000000000000000000C000C00029
:10471000000000000000C000C000C000C000C000D9
:10472000C000C000C000C000C000C000C000C00089
:10473000C000C000F8007800000000000C000C0071
:104740000C000C000C000C0C0C060C038C01CC00B3
:104750006C00FC009C018C030C030C060C0C00008C
:10476000000000000000000000000000C000C000C9
:10477000C000C000C000C000C000C000C000C00039
:10478000C000C000C000C000C000C000C0000000E9
:104790000000000000000000000000000000000019
:1047A0000000000000007C3CFF7EC7E383C183C1A2
:1047B00083C183C183C183C183C183C183C100001D
:1047C00000000000000000000000000000000000E9
:1047D0000000000000009807F80F381C181818187F
:1047E0001818181818181818181818181818000079
:1047F00000000000000000000000000000000000B9
:10480000000000000000C003F00F300C181818184A
:104810001818181818181818300CF00FC0030000DA
:104820000000000000000000000000000000000088
:10483000000000000000D803F80F380C18181818F2
:104840001818181818181818380CF80FD80318006A
:1048500018001800180018000000000000000000F8
:10486000000000000000C01BF01F301C18181818B2
:104870001818181818181818301CF01FC01B00182A
:1048800000180018001800180000000000000000C8
:10489000000000000000B007F0037000300030009E
:1048A00030003000300030003000300030000000B8
:1048B00000000000000000000000000000000000F8
:1048C000000000000000E003F003380E180C380070
:1048D000F003C007000C180C380EF007E0030000CE
:1048E0000000000000000000000000000000800048
:1048F000C000C000C000F007F007C000C000C0004A
:10490000C000C000C000C000C000C0078007000099
:104910000000000000000000000000000000000097
:104920000000000000001818181818181818181897
:104930001818181818181818381CF01FE01900005B
:104940000000000000000000000000000000000067
:104950000000000000000C18180C180C180C300691
:1049600030063006600360036003C001C001000030
:104970000000000000000000000000000000000037
:10498000000000000000C141C141C3616363636373
:1049900063633636363636361C1C1C1C1C1C000065
:1049A0000000000000000000000000000000000007
:1049B0000000000000001C38381C300C600660034A
:1049C0006003600360036006300C381C1C38000074
:1049D00000000000000000000000000000000000D7
:1049E0000000000000001830301830187018600CFB
:1049F000600CE00CC006C0068003800380038001C9
:104A00008001C001F0007000000000000000000004
:104A1000000000000000FC1FFC1F000C000600034B
:104A20008001C000600030001800FC1FFC1F000067
:104A300000000000000000000000000000038001F2
:104A4000C000C000C000C000C000C0006000600026
:104A5000300060004000C000C000C000C000C000C6
:104A6000C000800100030000000000008001800100
:104A7000800180018001800180018001800180012E
:104A8000800180018001800180018001800180011E
:104A90008001800180018001000000006000C000F2
:104AA000C0018001800180018001800100030003BA
:104AB0000006000300018001800180018001800167
:104AC0008001C00060000000000000000000000045
:104AD00000000000000000000000F010F81F080FA8
:104AE00000000000000000000000000000000000C6
:104AF0000000000000000000000000061016000684
:104B00001016000000000000000001020304060768
:104B100008090000344B000800000020400000009D
:104B2000C4010008744B0008400000208808000001
:104B3000E00100080000FFFF00000000000000008E
:104B40000000000000000000000000000000000065
:104B50000000000000000000000000000000000055
:104B60000000000001000000100000000000000034
:044B70000024F40029
:040000050800018965
:00000001FF
